{"abi":[{"type":"constructor","inputs":[],"stateMutability":"nonpayable"},{"type":"function","name":"getSecret","inputs":[{"name":"key","type":"uint256","internalType":"uint256"},{"name":"index","type":"uint256","internalType":"uint256"}],"outputs":[{"name":"","type":"uint256","internalType":"uint256"}],"stateMutability":"view"},{"type":"function","name":"solved","inputs":[],"outputs":[{"name":"","type":"bool","internalType":"bool"}],"stateMutability":"view"},{"type":"function","name":"submitSecret","inputs":[{"name":"_secret","type":"uint256","internalType":"uint256"}],"outputs":[],"stateMutability":"nonpayable"}],"bytecode":{"object":"0x6080604052348015600e575f5ffd5b5060408051602080820190925267524544414354454481526105395f52600191829052605b917f52e8abea2cc6974f44c21b74dc19db42ae1edcf95fde161da21b590887e0390891906060565b5060c1565b828054828255905f5260205f2090810192821560a1579160200282015b8281111560a157825182906001600160401b0316905591602001919060010190607d565b5060ab92915060af565b5090565b5b8082111560ab575f815560010160b0565b610232806100ce5f395ff3fe608060405234801561000f575f5ffd5b506004361061003f575f3560e01c80630b0a6c0c14610043578063799320bb146100695780637c1c171614610085575b5f5ffd5b6100566100513660046101b1565b61009a565b6040519081526020015b60405180910390f35b5f546100759060ff1681565b6040519015158152602001610060565b6100986100933660046101d1565b61011e565b005b5f33156100ee5760405162461bcd60e51b815260206004820152601a60248201527f596f757265206e6f74206d697a7568617261206368697a75727500000000000060448201526064015b60405180910390fd5b5f83815260016020526040902080548390811061010d5761010d6101e8565b905f5260205f200154905092915050565b6105395f90815260016020527f52e8abea2cc6974f44c21b74dc19db42ae1edcf95fde161da21b590887e03908805490919061015c5761015c6101e8565b905f5260205f20015481146101a25760405162461bcd60e51b815260206004820152600c60248201526b15dc9bdb99c81cd958dc995d60a21b60448201526064016100e5565b505f805460ff19166001179055565b5f5f604083850312156101c2575f5ffd5b50508035926020909101359150565b5f602082840312156101e1575f5ffd5b5035919050565b634e487b7160e01b5f52603260045260245ffdfea26469706673582212203808e47abf77c698a8326b3260926e5cda23025b3de87a884ea512b4c4e0ad4264736f6c634300081c0033","linkReferences":{}},"methodIdentifiers":{"getSecret(uint256,uint256)":"0b0a6c0c","solved()":"799320bb","submitSecret(uint256)":"7c1c1716"},"id":21}